{
  "contractName": "MetaTransaction",
  "abi": [
    {
      "inputs": [],
      "name": "_hashedMessage",
      "outputs": [
        {
          "internalType": "bytes32",
          "name": "",
          "type": "bytes32"
        }
      ],
      "stateMutability": "view",
      "type": "function"
    },
    {
      "inputs": [],
      "name": "_signedData",
      "outputs": [
        {
          "internalType": "bytes32",
          "name": "",
          "type": "bytes32"
        }
      ],
      "stateMutability": "view",
      "type": "function"
    },
    {
      "inputs": [],
      "name": "signer",
      "outputs": [
        {
          "internalType": "address",
          "name": "",
          "type": "address"
        }
      ],
      "stateMutability": "view",
      "type": "function"
    },
    {
      "inputs": [
        {
          "internalType": "bytes32",
          "name": "_certificateHash",
          "type": "bytes32"
        }
      ],
      "name": "getEthHash",
      "outputs": [
        {
          "internalType": "bytes32",
          "name": "",
          "type": "bytes32"
        }
      ],
      "stateMutability": "nonpayable",
      "type": "function"
    },
    {
      "inputs": [
        {
          "components": [
            {
              "internalType": "uint256",
              "name": "nonce",
              "type": "uint256"
            },
            {
              "internalType": "uint256",
              "name": "maxAmount",
              "type": "uint256"
            },
            {
              "internalType": "uint256",
              "name": "minAmount",
              "type": "uint256"
            }
          ],
          "internalType": "struct MetaTransaction.Certificate",
          "name": "_certificate",
          "type": "tuple"
        }
      ],
      "name": "getMessageHash",
      "outputs": [
        {
          "internalType": "bytes32",
          "name": "",
          "type": "bytes32"
        }
      ],
      "stateMutability": "nonpayable",
      "type": "function"
    },
    {
      "inputs": [],
      "name": "hash",
      "outputs": [
        {
          "internalType": "bytes32",
          "name": "",
          "type": "bytes32"
        }
      ],
      "stateMutability": "nonpayable",
      "type": "function"
    },
    {
      "inputs": [
        {
          "internalType": "bytes32",
          "name": "_ethHash",
          "type": "bytes32"
        },
        {
          "internalType": "bytes",
          "name": "_signature",
          "type": "bytes"
        }
      ],
      "name": "recover",
      "outputs": [
        {
          "internalType": "address",
          "name": "",
          "type": "address"
        }
      ],
      "stateMutability": "nonpayable",
      "type": "function"
    }
  ],
  "bytecode": "0x608060405234801561001057600080fd5b506108f4806100206000396000f3fe608060405234801561001057600080fd5b506004361061007d5760003560e01c8063238ac9331161005b578063238ac933146101005780636a5d490a1461011e578063d67b8b551461014e578063ef0a0c9b1461016c5761007d565b806309bd5a601461008257806314ad1d52146100a057806319045a25146100d0575b600080fd5b61008a61018a565b60405161009791906103e3565b60405180910390f35b6100ba60048036038101906100b5919061053d565b6101bc565b6040516100c791906103e3565b60405180910390f35b6100ea60048036038101906100e591906105fb565b610205565b6040516100f7919061069c565b60405180910390f35b6101086102f7565b604051610115919061069c565b60405180910390f35b610138600480360381019061013391906106b7565b61031d565b60405161014591906103e3565b60405180910390f35b610156610356565b60405161016391906103e3565b60405180910390f35b61017461035c565b60405161018191906103e3565b60405180910390f35b600080604051806060016040528060e181526020016103e88152602001600a81525090506101b7816101bc565b505090565b60008160000151826020015183604001516040516020016101df93929190610705565b604051602081830303815290604052805190602001206001819055506001549050919050565b60008060008061025886868080601f016020809104026020016040519081016040528093929190818152602001838380828437600081840152601f19601f82011690508083019250505050505050610362565b92509250925060018782858560405160008152602001604052604051610281949392919061075e565b6020604051602081039080840390855afa1580156102a3573d6000803e3d6000fd5b50505060206040510351600260006101000a81548173ffffffffffffffffffffffffffffffffffffffff021916908373ffffffffffffffffffffffffffffffffffffffff1602179055505050509392505050565b600260009054906101000a900473ffffffffffffffffffffffffffffffffffffffff1681565b600081604051602001610330919061081b565b604051602081830303815290604052805190602001206000819055506000549050919050565b60015481565b60005481565b600080600060418451146103ab576040517f08c379a00000000000000000000000000000000000000000000000000000000081526004016103a29061089e565b60405180910390fd5b6020840151925060408401519150606084015160001a90509193909250565b6000819050919050565b6103dd816103ca565b82525050565b60006020820190506103f860008301846103d4565b92915050565b6000604051905090565b600080fd5b600080fd5b600080fd5b6000601f19601f8301169050919050565b7f4e487b7100000000000000000000000000000000000000000000000000000000600052604160045260246000fd5b61046082610417565b810181811067ffffffffffffffff8211171561047f5761047e610428565b5b80604052505050565b60006104926103fe565b905061049e8282610457565b919050565b6000819050919050565b6104b6816104a3565b81146104c157600080fd5b50565b6000813590506104d3816104ad565b92915050565b6000606082840312156104ef576104ee610412565b5b6104f96060610488565b90506000610509848285016104c4565b600083015250602061051d848285016104c4565b6020830152506040610531848285016104c4565b60408301525092915050565b60006060828403121561055357610552610408565b5b6000610561848285016104d9565b91505092915050565b610573816103ca565b811461057e57600080fd5b50565b6000813590506105908161056a565b92915050565b600080fd5b600080fd5b600080fd5b60008083601f8401126105bb576105ba610596565b5b8235905067ffffffffffffffff8111156105d8576105d761059b565b5b6020830191508360018202830111156105f4576105f36105a0565b5b9250929050565b60008060006040848603121561061457610613610408565b5b600061062286828701610581565b935050602084013567ffffffffffffffff8111156106435761064261040d565b5b61064f868287016105a5565b92509250509250925092565b600073ffffffffffffffffffffffffffffffffffffffff82169050919050565b60006106868261065b565b9050919050565b6106968161067b565b82525050565b60006020820190506106b1600083018461068d565b92915050565b6000602082840312156106cd576106cc610408565b5b60006106db84828501610581565b91505092915050565b6000819050919050565b6106ff6106fa826104a3565b6106e4565b82525050565b600061071182866106ee565b60208201915061072182856106ee565b60208201915061073182846106ee565b602082019150819050949350505050565b600060ff82169050919050565b61075881610742565b82525050565b600060808201905061077360008301876103d4565b610780602083018661074f565b61078d60408301856103d4565b61079a60608301846103d4565b95945050505050565b600081905092915050565b7f19457468657265756d205369676e6564204d6573736167653a0a333200000000600082015250565b60006107e4601c836107a3565b91506107ef826107ae565b601c82019050919050565b6000819050919050565b610815610810826103ca565b6107fa565b82525050565b6000610826826107d7565b91506108328284610804565b60208201915081905092915050565b600082825260208201905092915050565b7f696e76616c6964207369676e6174757265206c656e6774680000000000000000600082015250565b6000610888601883610841565b915061089382610852565b602082019050919050565b600060208201905081810360008301526108b78161087b565b905091905056fea2646970667358221220b9f8a619b90078cfdb563cbd7470c662a64c754e60af60847dac5bcb4775325b64736f6c634300080a0033",
  "immutableReferences": {},
  "source": "pragma solidity 0.8.10;\r\n\r\n\r\n/// @title A title that should describe the contract/interface\r\n/// @author The name of the author\r\n/// @notice Explain to an end user what this does\r\n/// @dev Explain to a developer any extra details\r\n\r\n\r\n\r\n\r\n//  message to sign\r\n\r\n//  hash the message\r\n\r\n//  sign the hashed message. This is done offchain\r\n\r\n//  erecover --> this will return the signer\r\n\r\n\r\ncontract MetaTransaction {\r\n\r\n    struct Certificate {\r\n\r\n        uint256 nonce;\r\n        uint256 maxAmount;\r\n        uint256 minAmount;\r\n        //address signer;\r\n        \r\n\r\n    }\r\n\r\n    bytes32 public _signedData;\r\n    bytes32 public _hashedMessage;\r\n    address public signer;\r\n\r\n    function getEthHash(bytes32 _certificateHash) public returns (bytes32)  {\r\n        _signedData = keccak256(abi.encodePacked(\"\\x19Ethereum Signed Message:\\n32\", _certificateHash));\r\n        return _signedData;\r\n    }\r\n\r\n    function getMessageHash(Certificate memory _certificate) public returns (bytes32) {\r\n\r\n        _hashedMessage = keccak256(abi.encodePacked(_certificate.nonce, _certificate.maxAmount, _certificate.minAmount));\r\n        return _hashedMessage;\r\n\r\n    }\r\n\r\n    function hash() external returns (bytes32) {\r\n\r\n        Certificate memory _certificate = Certificate(225, 1000, 10);\r\n        getMessageHash(_certificate);\r\n        \r\n    }\r\n\r\n    function recover(bytes32 _ethHash, bytes calldata _signature) external returns (address) {\r\n\r\n        (bytes32 r, bytes32 s, uint8 v) = _split(_signature);\r\n        signer =  ecrecover(_ethHash, v, r, s);\r\n\r\n    }\r\n\r\n\r\n    function _split(bytes memory _signature) internal returns (bytes32 r, bytes32 s, uint8 v) {\r\n\r\n        require(_signature.length == 65, \"invalid signature length\");\r\n\r\n        assembly {\r\n\r\n            r := mload(add(_signature, 32))\r\n            s := mload(add(_signature, 64))\r\n            v := byte(0, mload(add(_signature, 96)))\r\n\r\n        }\r\n\r\n    }\r\n\r\n    \r\n\r\n}",
  "sourcePath": "C:\\Users\\Uju Nobei\\Documents\\Israel Linux\\blockchain\\TANGL\\MetaTransactions\\contracts\\MetaTransaction.sol",
  "compiler": {
    "name": "solc",
    "version": "0.8.10+commit.fc410830.Emscripten.clang"
  },
  "schemaVersion": "3.4.3",
  "updatedAt": "2022-02-09T20:00:06.377Z",
  "devdoc": {
    "author": "The name of the author",
    "details": "Explain to a developer any extra details",
    "kind": "dev",
    "methods": {},
    "title": "A title that should describe the contract/interface",
    "version": 1
  },
  "userdoc": {
    "kind": "user",
    "methods": {},
    "notice": "Explain to an end user what this does",
    "version": 1
  }
}